{
  "contractName": "DStorage",
  "abi": [
    {
      "inputs": [],
      "payable": false,
      "stateMutability": "nonpayable",
      "type": "constructor"
    },
    {
      "anonymous": false,
      "inputs": [
        {
          "indexed": false,
          "internalType": "uint256",
          "name": "fileId",
          "type": "uint256"
        },
        {
          "indexed": false,
          "internalType": "string",
          "name": "fileHash",
          "type": "string"
        },
        {
          "indexed": false,
          "internalType": "uint256",
          "name": "fileSize",
          "type": "uint256"
        },
        {
          "indexed": false,
          "internalType": "string",
          "name": "fileType",
          "type": "string"
        },
        {
          "indexed": false,
          "internalType": "string",
          "name": "fileName",
          "type": "string"
        },
        {
          "indexed": false,
          "internalType": "string",
          "name": "fileDescription",
          "type": "string"
        },
        {
          "indexed": false,
          "internalType": "uint256",
          "name": "uploadTime",
          "type": "uint256"
        },
        {
          "indexed": false,
          "internalType": "uint256",
          "name": "voted",
          "type": "uint256"
        },
        {
          "indexed": false,
          "internalType": "address payable",
          "name": "uploader",
          "type": "address"
        }
      ],
      "name": "FileUploaded",
      "type": "event"
    },
    {
      "anonymous": false,
      "inputs": [
        {
          "indexed": false,
          "internalType": "address",
          "name": "from",
          "type": "address"
        }
      ],
      "name": "Sent",
      "type": "event"
    },
    {
      "constant": true,
      "inputs": [
        {
          "internalType": "address",
          "name": "",
          "type": "address"
        }
      ],
      "name": "all",
      "outputs": [
        {
          "internalType": "uint256",
          "name": "",
          "type": "uint256"
        }
      ],
      "payable": false,
      "stateMutability": "view",
      "type": "function"
    },
    {
      "constant": true,
      "inputs": [],
      "name": "fileCoun",
      "outputs": [
        {
          "internalType": "uint256",
          "name": "",
          "type": "uint256"
        }
      ],
      "payable": false,
      "stateMutability": "view",
      "type": "function"
    },
    {
      "constant": true,
      "inputs": [],
      "name": "fileCount",
      "outputs": [
        {
          "internalType": "uint256",
          "name": "",
          "type": "uint256"
        }
      ],
      "payable": false,
      "stateMutability": "view",
      "type": "function"
    },
    {
      "constant": true,
      "inputs": [
        {
          "internalType": "uint256",
          "name": "",
          "type": "uint256"
        }
      ],
      "name": "files",
      "outputs": [
        {
          "internalType": "uint256",
          "name": "fileId",
          "type": "uint256"
        },
        {
          "internalType": "string",
          "name": "fileHash",
          "type": "string"
        },
        {
          "internalType": "uint256",
          "name": "fileSize",
          "type": "uint256"
        },
        {
          "internalType": "string",
          "name": "fileType",
          "type": "string"
        },
        {
          "internalType": "string",
          "name": "fileName",
          "type": "string"
        },
        {
          "internalType": "string",
          "name": "fileDescription",
          "type": "string"
        },
        {
          "internalType": "uint256",
          "name": "uploadTime",
          "type": "uint256"
        },
        {
          "internalType": "bool",
          "name": "t",
          "type": "bool"
        },
        {
          "internalType": "uint256",
          "name": "voted",
          "type": "uint256"
        },
        {
          "internalType": "bool",
          "name": "vote",
          "type": "bool"
        },
        {
          "internalType": "address payable",
          "name": "uploader",
          "type": "address"
        }
      ],
      "payable": false,
      "stateMutability": "view",
      "type": "function"
    },
    {
      "constant": true,
      "inputs": [
        {
          "internalType": "uint256",
          "name": "",
          "type": "uint256"
        }
      ],
      "name": "hashArray",
      "outputs": [
        {
          "internalType": "string",
          "name": "",
          "type": "string"
        }
      ],
      "payable": false,
      "stateMutability": "view",
      "type": "function"
    },
    {
      "constant": true,
      "inputs": [],
      "name": "name",
      "outputs": [
        {
          "internalType": "string",
          "name": "",
          "type": "string"
        }
      ],
      "payable": false,
      "stateMutability": "view",
      "type": "function"
    },
    {
      "constant": true,
      "inputs": [
        {
          "internalType": "address",
          "name": "",
          "type": "address"
        }
      ],
      "name": "name1",
      "outputs": [
        {
          "internalType": "string",
          "name": "",
          "type": "string"
        }
      ],
      "payable": false,
      "stateMutability": "view",
      "type": "function"
    },
    {
      "constant": true,
      "inputs": [
        {
          "internalType": "address",
          "name": "",
          "type": "address"
        }
      ],
      "name": "occ",
      "outputs": [
        {
          "internalType": "uint256",
          "name": "",
          "type": "uint256"
        }
      ],
      "payable": false,
      "stateMutability": "view",
      "type": "function"
    },
    {
      "constant": true,
      "inputs": [
        {
          "internalType": "address",
          "name": "",
          "type": "address"
        }
      ],
      "name": "password",
      "outputs": [
        {
          "internalType": "uint256",
          "name": "",
          "type": "uint256"
        }
      ],
      "payable": false,
      "stateMutability": "view",
      "type": "function"
    },
    {
      "constant": true,
      "inputs": [
        {
          "internalType": "uint256",
          "name": "",
          "type": "uint256"
        }
      ],
      "name": "votingsss",
      "outputs": [
        {
          "internalType": "bool",
          "name": "",
          "type": "bool"
        }
      ],
      "payable": false,
      "stateMutability": "view",
      "type": "function"
    },
    {
      "constant": false,
      "inputs": [
        {
          "internalType": "uint256",
          "name": "pass",
          "type": "uint256"
        },
        {
          "internalType": "string",
          "name": "_nam",
          "type": "string"
        }
      ],
      "name": "login",
      "outputs": [],
      "payable": false,
      "stateMutability": "nonpayable",
      "type": "function"
    },
    {
      "constant": false,
      "inputs": [
        {
          "internalType": "string",
          "name": "_nam",
          "type": "string"
        }
      ],
      "name": "logout",
      "outputs": [],
      "payable": false,
      "stateMutability": "nonpayable",
      "type": "function"
    },
    {
      "constant": true,
      "inputs": [
        {
          "internalType": "uint256",
          "name": "i",
          "type": "uint256"
        }
      ],
      "name": "checkWinninProposalWithReturnValue",
      "outputs": [
        {
          "internalType": "bool",
          "name": "",
          "type": "bool"
        }
      ],
      "payable": false,
      "stateMutability": "view",
      "type": "function"
    },
    {
      "constant": false,
      "inputs": [
        {
          "internalType": "bool",
          "name": "_vote",
          "type": "bool"
        },
        {
          "internalType": "uint256",
          "name": "i",
          "type": "uint256"
        }
      ],
      "name": "voting",
      "outputs": [],
      "payable": true,
      "stateMutability": "payable",
      "type": "function"
    },
    {
      "constant": false,
      "inputs": [
        {
          "internalType": "string",
          "name": "_fileHash",
          "type": "string"
        },
        {
          "internalType": "uint256",
          "name": "_fileSize",
          "type": "uint256"
        },
        {
          "internalType": "string",
          "name": "_fileType",
          "type": "string"
        },
        {
          "internalType": "string",
          "name": "_fileName",
          "type": "string"
        },
        {
          "internalType": "string",
          "name": "_fileDescription",
          "type": "string"
        }
      ],
      "name": "uploadFile",
      "outputs": [],
      "payable": false,
      "stateMutability": "nonpayable",
      "type": "function"
    }
  ],
  "bytecode": "0x60806040526040518060400160405280600881526020017f4453746f726167650000000000000000000000000000000000000000000000008152506000908051906020019062000051929190620002ae565b506000600155600060025560646040519080825280602002602001820160405280156200009357816020015b60608152602001906001900390816200007d5790505b5060049080519060200190620000ab92919062000335565b506040518060400160405280600381526020017f77656c0000000000000000000000000000000000000000000000000000000000815250600a9080519060200190620000f9929190620002ae565b5060646040519080825280602002602001820160405280156200012b5781602001602082028038833980820191505090505b50600b9080519060200190620001439291906200039c565b503480156200015157600080fd5b5033600560006101000a81548173ffffffffffffffffffffffffffffffffffffffff021916908373ffffffffffffffffffffffffffffffffffffffff1602179055506001600660003373ffffffffffffffffffffffffffffffffffffffff1673ffffffffffffffffffffffffffffffffffffffff16815260200190815260200160002081905550607b600860003373ffffffffffffffffffffffffffffffffffffffff1673ffffffffffffffffffffffffffffffffffffffff168152602001908152602001600020819055506040518060400160405280600581526020017f6f776e6572000000000000000000000000000000000000000000000000000000815250600960003373ffffffffffffffffffffffffffffffffffffffff1673ffffffffffffffffffffffffffffffffffffffff1681526020019081526020016000209080519060200190620002a7929190620002ae565b50620005a8565b828054600181600116156101000203166002900490600052602060002090601f016020900481019282601f10620002f157805160ff191683800117855562000322565b8280016001018555821562000322579182015b828111156200032157825182559160200191906001019062000304565b5b50905062000331919062000449565b5090565b82805482825590600052602060002090810192821562000389579160200282015b82811115620003885782518290805190602001906200037792919062000471565b509160200191906001019062000356565b5b509050620003989190620004f8565b5090565b82805482825590600052602060002090601f01602090048101928215620004365791602002820160005b838211156200040557835183826101000a81548160ff0219169083151502179055509260200192600101602081600001049283019260010302620003c6565b8015620004345782816101000a81549060ff021916905560010160208160000104928301926001030262000405565b505b50905062000445919062000529565b5090565b6200046e91905b808211156200046a57600081600090555060010162000450565b5090565b90565b828054600181600116156101000203166002900490600052602060002090601f016020900481019282601f10620004b457805160ff1916838001178555620004e5565b82800160010185558215620004e5579182015b82811115620004e4578251825591602001919060010190620004c7565b5b509050620004f4919062000449565b5090565b6200052691905b808211156200052257600081816200051891906200055c565b50600101620004ff565b5090565b90565b6200055991905b808211156200055557600081816101000a81549060ff02191690555060010162000530565b5090565b90565b50805460018160011615610100020316600290046000825580601f10620005845750620005a5565b601f016020900490600052602060002090810190620005a4919062000449565b5b50565b61217780620005b86000396000f3fe6080604052600436106100e85760003560e01c80635beb1ea41161008a578063e0fdae0811610059578063e0fdae081461061b578063e5b883ad146106cf578063e82d9d33146106fa578063f4c714b414610991576100e8565b80635beb1ea41461044d5780638e4d78f6146104b25780639788802f146104ec578063c0f2168614610551576100e8565b80632c4f5a17116100c65780632c4f5a171461023557806336078f0614610307578063439535191461035a5780634cbee81314610385576100e8565b806306fdde03146100ed5780631a6f29a41461017d5780632441afce146101d0575b600080fd5b3480156100f957600080fd5b50610102610bee565b6040518080602001828103825283818151815260200191508051906020019080838360005b83811015610142578082015181840152602081019050610127565b50505050905090810190601f16801561016f5780820380516001836020036101000a031916815260200191505b509250505060405180910390f35b34801561018957600080fd5b506101b6600480360360208110156101a057600080fd5b8101908080359060200190929190505050610c8c565b604051808215151515815260200191505060405180910390f35b3480156101dc57600080fd5b5061021f600480360360208110156101f357600080fd5b81019080803573ffffffffffffffffffffffffffffffffffffffff169060200190929190505050610cbd565b6040518082815260200191505060405180910390f35b34801561024157600080fd5b506103056004803603604081101561025857600080fd5b81019080803590602001909291908035906020019064010000000081111561027f57600080fd5b82018360208201111561029157600080fd5b803590602001918460018302840111640100000000831117156102b357600080fd5b91908080601f016020809104026020016040519081016040528093929190818152602001838380828437600081840152601f19601f820116905080830192505050505050509192919290505050610cd5565b005b34801561031357600080fd5b506103406004803603602081101561032a57600080fd5b8101908080359060200190929190505050610f3d565b604051808215151515815260200191505060405180910390f35b34801561036657600080fd5b5061036f61103c565b6040518082815260200191505060405180910390f35b34801561039157600080fd5b5061044b600480360360208110156103a857600080fd5b81019080803590602001906401000000008111156103c557600080fd5b8201836020820111156103d757600080fd5b803590602001918460018302840111640100000000831117156103f957600080fd5b91908080601f016020809104026020016040519081016040528093929190818152602001838380828437600081840152601f19601f820116905080830192505050505050509192919290505050611042565b005b34801561045957600080fd5b5061049c6004803603602081101561047057600080fd5b81019080803573ffffffffffffffffffffffffffffffffffffffff16906020019092919050505061108a565b6040518082815260200191505060405180910390f35b6104ea600480360360408110156104c857600080fd5b81019080803515159060200190929190803590602001909291905050506110a2565b005b3480156104f857600080fd5b5061053b6004803603602081101561050f57600080fd5b81019080803573ffffffffffffffffffffffffffffffffffffffff16906020019092919050505061146e565b6040518082815260200191505060405180910390f35b34801561055d57600080fd5b506105a06004803603602081101561057457600080fd5b81019080803573ffffffffffffffffffffffffffffffffffffffff169060200190929190505050611486565b6040518080602001828103825283818151815260200191508051906020019080838360005b838110156105e05780820151818401526020810190506105c5565b50505050905090810190601f16801561060d5780820380516001836020036101000a031916815260200191505b509250505060405180910390f35b34801561062757600080fd5b506106546004803603602081101561063e57600080fd5b8101908080359060200190929190505050611536565b6040518080602001828103825283818151815260200191508051906020019080838360005b83811015610694578082015181840152602081019050610679565b50505050905090810190601f1680156106c15780820380516001836020036101000a031916815260200191505b509250505060405180910390f35b3480156106db57600080fd5b506106e46115ef565b6040518082815260200191505060405180910390f35b34801561070657600080fd5b5061098f600480360360a081101561071d57600080fd5b810190808035906020019064010000000081111561073a57600080fd5b82018360208201111561074c57600080fd5b8035906020019184600183028401116401000000008311171561076e57600080fd5b91908080601f016020809104026020016040519081016040528093929190818152602001838380828437600081840152601f19601f82011690508083019250505050505050919291929080359060200190929190803590602001906401000000008111156107db57600080fd5b8201836020820111156107ed57600080fd5b8035906020019184600183028401116401000000008311171561080f57600080fd5b91908080601f016020809104026020016040519081016040528093929190818152602001838380828437600081840152601f19601f8201169050808301925050505050505091929192908035906020019064010000000081111561087257600080fd5b82018360208201111561088457600080fd5b803590602001918460018302840111640100000000831117156108a657600080fd5b91908080601f016020809104026020016040519081016040528093929190818152602001838380828437600081840152601f19601f8201169050808301925050505050505091929192908035906020019064010000000081111561090957600080fd5b82018360208201111561091b57600080fd5b8035906020019184600183028401116401000000008311171561093d57600080fd5b91908080601f016020809104026020016040519081016040528093929190818152602001838380828437600081840152601f19601f8201169050808301925050505050505091929192905050506115f5565b005b34801561099d57600080fd5b506109ca600480360360208110156109b457600080fd5b8101908080359060200190929190505050611d29565b604051808c8152602001806020018b81526020018060200180602001806020018a815260200189151515158152602001888152602001871515151581526020018673ffffffffffffffffffffffffffffffffffffffff1673ffffffffffffffffffffffffffffffffffffffff16815260200185810385528f818151815260200191508051906020019080838360005b83811015610a74578082015181840152602081019050610a59565b50505050905090810190601f168015610aa15780820380516001836020036101000a031916815260200191505b5085810384528d818151815260200191508051906020019080838360005b83811015610ada578082015181840152602081019050610abf565b50505050905090810190601f168015610b075780820380516001836020036101000a031916815260200191505b5085810383528c818151815260200191508051906020019080838360005b83811015610b40578082015181840152602081019050610b25565b50505050905090810190601f168015610b6d5780820380516001836020036101000a031916815260200191505b5085810382528b818151815260200191508051906020019080838360005b83811015610ba6578082015181840152602081019050610b8b565b50505050905090810190601f168015610bd35780820380516001836020036101000a031916815260200191505b509f5050505050505050505050505050505060405180910390f35b60008054600181600116156101000203166002900480601f016020809104026020016040519081016040528092919081815260200182805460018160011615610100020316600290048015610c845780601f10610c5957610100808354040283529160200191610c84565b820191906000526020600020905b815481529060010190602001808311610c6757829003601f168201915b505050505081565b600b8181548110610c9957fe5b9060005260206000209060209182820401919006915054906101000a900460ff1681565b60066020528060005260406000206000915090505481565b6001600660003373ffffffffffffffffffffffffffffffffffffffff1673ffffffffffffffffffffffffffffffffffffffff168152602001908152602001600020541415610e175781600860003373ffffffffffffffffffffffffffffffffffffffff1673ffffffffffffffffffffffffffffffffffffffff168152602001908152602001600020541415610dae576001600760003373ffffffffffffffffffffffffffffffffffffffff1673ffffffffffffffffffffffffffffffffffffffff16815260200190815260200160002081905550610e16565b7fad9eefc313550eb26658f0b86c43d562b31167aa21d08ad7c5989630d6f0cd1c33604051808273ffffffffffffffffffffffffffffffffffffffff1673ffffffffffffffffffffffffffffffffffffffff16815260200191505060405180910390a1600080fd5b5b81600860003373ffffffffffffffffffffffffffffffffffffffff1673ffffffffffffffffffffffffffffffffffffffff1681526020019081526020016000208190555080600960003373ffffffffffffffffffffffffffffffffffffffff1673ffffffffffffffffffffffffffffffffffffffff1681526020019081526020016000209080519060200190610eae92919061201d565b506001600660003373ffffffffffffffffffffffffffffffffffffffff1673ffffffffffffffffffffffffffffffffffffffff168152602001908152602001600020819055506001600760003373ffffffffffffffffffffffffffffffffffffffff1673ffffffffffffffffffffffffffffffffffffffff168152602001908152602001600020819055505050565b60008060006003600085815260200190815260200160002060090160009054906101000a900460ff16905060006003600086815260200190815260200160002060070160009054906101000a900460ff1690506000600b8681548110610f9f57fe5b90600052602060002090602091828204019190069054906101000a900460ff169050600060036000888152602001908152602001600020600801549050600381141561102a57600115158415151415611020576001151583151514156110165760011515821515141561101157600194505b61101b565b600094505b611025565b600094505b61102f565b600080fd5b8495505050505050919050565b60015481565b6000600760003373ffffffffffffffffffffffffffffffffffffffff1673ffffffffffffffffffffffffffffffffffffffff1681526020019081526020016000208190555050565b60086020528060005260406000206000915090505481565b60606040518060400160405280600581526020017f6f776e657200000000000000000000000000000000000000000000000000000081525090506060600960003373ffffffffffffffffffffffffffffffffffffffff1673ffffffffffffffffffffffffffffffffffffffff1681526020019081526020016000208054600181600116156101000203166002900480601f0160208091040260200160405190810160405280929190818152602001828054600181600116156101000203166002900480156111b15780601f10611186576101008083540402835291602001916111b1565b820191906000526020600020905b81548152906001019060200180831161119457829003601f168201915b50505050509050806040516020018082805190602001908083835b602083106111ef57805182526020820191506020810190506020830392506111cc565b6001836020036101000a03801982511681845116808217855250505050505090500191505060405160208183030381529060405280519060200120826040516020018082805190602001908083835b60208310611261578051825260208201915060208101905060208303925061123e565b6001836020036101000a038019825116818451168082178552505050505050905001915050604051602081830303815290604052805190602001201461130f576040517f08c379a00000000000000000000000000000000000000000000000000000000081526004018080602001828103825260148152602001807f6e6f7420656c696769626c6520746f20766f746500000000000000000000000081525060200191505060405180910390fd5b60006003600085815260200190815260200160002060080154141561137d57836003600085815260200190815260200160002060090160006101000a81548160ff02191690831515021790555060016003600085815260200190815260200160002060080181905550611468565b6001600360008581526020019081526020016000206008015414156113eb57836003600085815260200190815260200160002060070160006101000a81548160ff02191690831515021790555060026003600085815260200190815260200160002060080181905550611467565b6002600360008581526020019081526020016000206008015414156114615783600b848154811061141857fe5b90600052602060002090602091828204019190066101000a81548160ff021916908315150217905550600380600085815260200190815260200160002060080181905550611466565b600080fd5b5b5b50505050565b60076020528060005260406000206000915090505481565b60096020528060005260406000206000915090508054600181600116156101000203166002900480601f01602080910402602001604051908101604052809291908181526020018280546001816001161561010002031660029004801561152e5780601f106115035761010080835404028352916020019161152e565b820191906000526020600020905b81548152906001019060200180831161151157829003601f168201915b505050505081565b6004818154811061154357fe5b906000526020600020016000915090508054600181600116156101000203166002900480601f0160208091040260200160405190810160405280929190818152602001828054600181600116156101000203166002900480156115e75780601f106115bc576101008083540402835291602001916115e7565b820191906000526020600020905b8154815290600101906020018083116115ca57829003601f168201915b505050505081565b60025481565b6000600190505b600154811161181f5760606004828154811061161457fe5b906000526020600020018054600181600116156101000203166002900480601f0160208091040260200160405190810160405280929190818152602001828054600181600116156101000203166002900480156116b25780601f10611687576101008083540402835291602001916116b2565b820191906000526020600020905b81548152906001019060200180831161169557829003601f168201915b50505050509050806040516020018082805190602001908083835b602083106116f057805182526020820191506020810190506020830392506116cd565b6001836020036101000a03801982511681845116808217855250505050505090500191505060405160208183030381529060405280519060200120876040516020018082805190602001908083835b60208310611762578051825260208201915060208101905060208303925061173f565b6001836020036101000a038019825116818451168082178552505050505050905001915050604051602081830303815290604052805190602001201415611811576040517f08c379a000000000000000000000000000000000000000000000000000000000815260040180806020018281038252600f8152602001807f436f70797269676874206973737565000000000000000000000000000000000081525060200191505060405180910390fd5b5080806001019150506115fc565b506001600760003373ffffffffffffffffffffffffffffffffffffffff1673ffffffffffffffffffffffffffffffffffffffff168152602001908152602001600020541461186c57600080fd5b600085511161187a57600080fd5b600083511161188857600080fd5b600081511161189657600080fd5b60008251116118a457600080fd5b600073ffffffffffffffffffffffffffffffffffffffff163373ffffffffffffffffffffffffffffffffffffffff1614156118de57600080fd5b600084116118eb57600080fd5b600080905060008090506000809050600080905060016000815480929190600101919050555060405180610160016040528060015481526020018a8152602001898152602001888152602001878152602001868152602001428152602001841515815260200185815260200183151581526020013373ffffffffffffffffffffffffffffffffffffffff168152506003600060015481526020019081526020016000206000820151816000015560208201518160010190805190602001906119b492919061209d565b506040820151816002015560608201518160030190805190602001906119db92919061209d565b5060808201518160040190805190602001906119f892919061209d565b5060a0820151816005019080519060200190611a1592919061209d565b5060c0820151816006015560e08201518160070160006101000a81548160ff02191690831515021790555061010082015181600801556101208201518160090160006101000a81548160ff0219169083151502179055506101408201518160090160016101000a81548173ffffffffffffffffffffffffffffffffffffffff021916908373ffffffffffffffffffffffffffffffffffffffff16021790555090505088600460015481548110611ac757fe5b906000526020600020019080519060200190611ae492919061201d565b507f8c1183ee66da0139f6b9d2da1ef32528e4fc7b4b90e1597fc1a0d26e25b208556001548a8a8a8a8a428b33604051808a8152602001806020018981526020018060200180602001806020018881526020018781526020018673ffffffffffffffffffffffffffffffffffffffff1673ffffffffffffffffffffffffffffffffffffffff16815260200185810385528d818151815260200191508051906020019080838360005b83811015611ba7578082015181840152602081019050611b8c565b50505050905090810190601f168015611bd45780820380516001836020036101000a031916815260200191505b5085810384528b818151815260200191508051906020019080838360005b83811015611c0d578082015181840152602081019050611bf2565b50505050905090810190601f168015611c3a5780820380516001836020036101000a031916815260200191505b5085810383528a818151815260200191508051906020019080838360005b83811015611c73578082015181840152602081019050611c58565b50505050905090810190601f168015611ca05780820380516001836020036101000a031916815260200191505b50858103825289818151815260200191508051906020019080838360005b83811015611cd9578082015181840152602081019050611cbe565b50505050905090810190601f168015611d065780820380516001836020036101000a031916815260200191505b509d505050505050505050505050505060405180910390a1505050505050505050565b6003602052806000526040600020600091509050806000015490806001018054600181600116156101000203166002900480601f016020809104026020016040519081016040528092919081815260200182805460018160011615610100020316600290048015611ddb5780601f10611db057610100808354040283529160200191611ddb565b820191906000526020600020905b815481529060010190602001808311611dbe57829003601f168201915b505050505090806002015490806003018054600181600116156101000203166002900480601f016020809104026020016040519081016040528092919081815260200182805460018160011615610100020316600290048015611e7f5780601f10611e5457610100808354040283529160200191611e7f565b820191906000526020600020905b815481529060010190602001808311611e6257829003601f168201915b505050505090806004018054600181600116156101000203166002900480601f016020809104026020016040519081016040528092919081815260200182805460018160011615610100020316600290048015611f1d5780601f10611ef257610100808354040283529160200191611f1d565b820191906000526020600020905b815481529060010190602001808311611f0057829003601f168201915b505050505090806005018054600181600116156101000203166002900480601f016020809104026020016040519081016040528092919081815260200182805460018160011615610100020316600290048015611fbb5780601f10611f9057610100808354040283529160200191611fbb565b820191906000526020600020905b815481529060010190602001808311611f9e57829003601f168201915b5050505050908060060154908060070160009054906101000a900460ff16908060080154908060090160009054906101000a900460ff16908060090160019054906101000a900473ffffffffffffffffffffffffffffffffffffffff1690508b565b828054600181600116156101000203166002900490600052602060002090601f016020900481019282601f1061205e57805160ff191683800117855561208c565b8280016001018555821561208c579182015b8281111561208b578251825591602001919060010190612070565b5b509050612099919061211d565b5090565b828054600181600116156101000203166002900490600052602060002090601f016020900481019282601f106120de57805160ff191683800117855561210c565b8280016001018555821561210c579182015b8281111561210b5782518255916020019190600101906120f0565b5b509050612119919061211d565b5090565b61213f91905b8082111561213b576000816000905550600101612123565b5090565b9056fea265627a7a7231582025868d2c45929ca577dbc055a79b281ede898c02165a878cbf4ec6aae0ed9d4864736f6c63430005100032",
  "source": "pragma solidity >=0.4.21 <0.6.0;\n\ncontract DStorage {\n  string public name = 'DStorage';\n  uint public fileCount = 0;\n  uint public fileCoun = 0;\n  mapping(uint => File) public files;\n  string[] public hashArray = new string[](100);\n  address owner;\n   mapping (address => uint) public occ;\n    mapping (address => uint) public all;\n     mapping (address => uint) public password;\n     //remove public if you donot want password.\n     mapping (address => string) public name1;\n    string wel =\"wel\";\n    bool[] public votingsss = new bool[](100);\n    event Sent(address from);\n\n  struct File {\n    uint fileId;\n    string fileHash;\n    uint fileSize;\n    string fileType;\n    string fileName;\n    string fileDescription;\n    uint uploadTime;\n    bool t;\n    uint voted;\n    bool vote;\n    \n\n    \n   address payable uploader;\n  }\n\n  event FileUploaded(\n    uint fileId,\n    string fileHash,\n    uint fileSize,\n    string fileType,\n    string fileName, \n    string fileDescription,\n    uint uploadTime,\n    uint voted,\n    address payable uploader\n  );\n\n  constructor() public {\n      owner =msg.sender;\n      occ[msg.sender] = 1;\n        password[msg.sender]= 123;\n         name1[msg.sender]= 'owner';\n         //all[msg.sender] = 1;\n  }\n  \n    function login(uint pass, string memory _nam )  public{\n        if (occ[msg.sender] == 1)\n        {\n            \n            if (password[msg.sender] == pass)\n            { all[msg.sender] = 1;}\n            else{\n                emit Sent(msg.sender);\n                revert();\n            }\n        \n        }\n        \n        password[msg.sender]=pass;\n        name1[msg.sender]= _nam;\n        occ[msg.sender] = 1;\n        all[msg.sender] = 1;\n        \n         }\n  function logout(string memory _nam)  public{\n        \n        \n        \n        all[msg.sender] = 0;\n        \n         }\n       function checkWinninProposalWithReturnValue (uint i) public view returns (bool) {\n           bool winner;\n           bool f=files[i].vote;\n           bool s=files[i].t;\n           bool e=votingsss[i];\n           uint v =files[i].voted;\n        if( v== 3)\n        {\n            if(f== true)\n             {\n                if(s==true)\n                 {\n                   if(e==true)\n                   { \n                     winner = true;\n                   }\n                   \n                  }\n                  else\n                  {\n                    winner = false;  \n                  }\n                \n                }\n            else \n            {\n               winner = false;   \n            }\n        }\n        else {\n            \n            revert();\n        }\n        return winner;\n    }          \n \nfunction voting( bool _vote,uint i) public payable {\n     \nstring memory _z = 'owner' ;\nstring memory _y = name1[msg.sender];\n\n     \n       \n           require (keccak256(abi. encodePacked(_z)) == keccak256(abi. encodePacked(_y)) , \"not eligible to vote\") ;      \n      if(files[i].voted==0)\n      {\n          files[i].vote=_vote;\n          files[i].voted=1;\n      }\n      else if(files[i].voted==1)\n      {\n          files[i].t=_vote;\n          files[i].voted=2;\n      }\n       else if(files[i].voted==2)\n      {\n          votingsss[i]=_vote;\n          files[i].voted=3;\n      }\n      else\n      {\n          revert();\n      }\n      \n    \n\n    \n    \n}\n  function uploadFile(string memory _fileHash, uint _fileSize, string memory _fileType, string memory _fileName, string memory _fileDescription) public {\n    // string memory _ab = \"Qmep96bgCmHYLbg3mDjkmXy2ioovZhf4AsQsS9XhrZ4TVM\";\n\n    // require (keccak256(abi. encodePacked(_fileHash)) != keccak256(abi. encodePacked(_ab)) ) ;\n    // // Make sure the file hash exists\n\n    for(uint i=1; i<=fileCount; i++){\n      string memory _ab = hashArray[i];\n      require (keccak256(abi. encodePacked(_fileHash)) != keccak256(abi. encodePacked(_ab)) , \"Copyright issue\") ;\n      \n    }\nrequire(all[msg.sender] == 1);\n    require(bytes(_fileHash).length > 0);\n    // Make sure file type exists\n    require(bytes(_fileType).length > 0);\n    // Make sure file description exists\n    require(bytes(_fileDescription).length > 0);\n    // Make sure file fileName exists\n    require(bytes(_fileName).length > 0);\n    // Make sure uploader address exists\n    require(msg.sender!=address(0));\n    // Make sure file size is more than 0\n    require(_fileSize>0);\n  // bool te = false;\n    uint voteds = 0;\n    bool t = false;\n    bool vote = false;\n    bool votes = false;\n    // Increment file id\n    fileCount ++;\n\n    // Add File to the contract\n    files[fileCount] = File(fileCount, _fileHash, _fileSize, _fileType, _fileName, _fileDescription, block.timestamp,t,voteds,vote, msg.sender);\n    hashArray[fileCount]=_fileHash;\n    // Trigger an event\n    emit FileUploaded(fileCount, _fileHash, _fileSize, _fileType, _fileName, _fileDescription, block.timestamp,voteds, msg.sender);\n  }\n}",
  "sourcePath": "/Users/carolmendonca/Desktop/pbl-latest/hackathon/src/contracts/DStorage.sol",
  "compiler": {
    "name": "solc",
    "version": "0.5.16+commit.9c3226ce.Emscripten.clang"
  },
  "schemaVersion": "3.3.1",
  "updatedAt": "2021-03-28T03:33:50.971Z",
  "networkType": "ethereum",
  "devdoc": {
    "methods": {}
  },
  "userdoc": {
    "methods": {}
  }
}